{
  "_format": "hh-sol-artifact-1",
  "contractName": "TouristConTract",
  "sourceName": "contracts/Tourism.sol",
  "abi": [
    {
      "inputs": [],
      "stateMutability": "nonpayable",
      "type": "constructor"
    },
    {
      "anonymous": false,
      "inputs": [
        {
          "indexed": false,
          "internalType": "string",
          "name": "nameDestination",
          "type": "string"
        },
        {
          "indexed": false,
          "internalType": "string",
          "name": "nameAlbum",
          "type": "string"
        }
      ],
      "name": "AddDestinationInAlbum",
      "type": "event"
    },
    {
      "anonymous": false,
      "inputs": [
        {
          "indexed": false,
          "internalType": "string",
          "name": "AlbumName",
          "type": "string"
        },
        {
          "components": [
            {
              "internalType": "string",
              "name": "desName",
              "type": "string"
            },
            {
              "internalType": "uint256",
              "name": "arrivalDate",
              "type": "uint256"
            },
            {
              "internalType": "string",
              "name": "review",
              "type": "string"
            },
            {
              "internalType": "uint256",
              "name": "rate",
              "type": "uint256"
            }
          ],
          "indexed": false,
          "internalType": "struct TouristConTract.Journey",
          "name": "journey",
          "type": "tuple"
        }
      ],
      "name": "AddJourneyInAlbum",
      "type": "event"
    },
    {
      "anonymous": false,
      "inputs": [
        {
          "indexed": false,
          "internalType": "string",
          "name": "name",
          "type": "string"
        },
        {
          "indexed": false,
          "internalType": "uint256",
          "name": "age",
          "type": "uint256"
        }
      ],
      "name": "AddTourist",
      "type": "event"
    },
    {
      "anonymous": false,
      "inputs": [
        {
          "indexed": true,
          "internalType": "address",
          "name": "owner",
          "type": "address"
        },
        {
          "indexed": true,
          "internalType": "address",
          "name": "spender",
          "type": "address"
        },
        {
          "indexed": false,
          "internalType": "uint256",
          "name": "value",
          "type": "uint256"
        }
      ],
      "name": "Approval",
      "type": "event"
    },
    {
      "anonymous": false,
      "inputs": [
        {
          "indexed": false,
          "internalType": "string",
          "name": "desName",
          "type": "string"
        },
        {
          "indexed": false,
          "internalType": "string",
          "name": "review",
          "type": "string"
        },
        {
          "indexed": false,
          "internalType": "uint256",
          "name": "rate",
          "type": "uint256"
        },
        {
          "indexed": false,
          "internalType": "uint256",
          "name": "ticketID",
          "type": "uint256"
        }
      ],
      "name": "CheckIn",
      "type": "event"
    },
    {
      "anonymous": false,
      "inputs": [
        {
          "indexed": false,
          "internalType": "uint256",
          "name": "_id",
          "type": "uint256"
        },
        {
          "indexed": false,
          "internalType": "string",
          "name": "_name",
          "type": "string"
        }
      ],
      "name": "CreateAlbum",
      "type": "event"
    },
    {
      "anonymous": false,
      "inputs": [
        {
          "indexed": true,
          "internalType": "address",
          "name": "from",
          "type": "address"
        },
        {
          "indexed": true,
          "internalType": "address",
          "name": "to",
          "type": "address"
        },
        {
          "indexed": false,
          "internalType": "uint256",
          "name": "value",
          "type": "uint256"
        }
      ],
      "name": "Transfer",
      "type": "event"
    },
    {
      "inputs": [
        {
          "internalType": "uint256",
          "name": "index",
          "type": "uint256"
        },
        {
          "internalType": "uint256",
          "name": "albumId",
          "type": "uint256"
        },
        {
          "internalType": "uint256",
          "name": "date",
          "type": "uint256"
        }
      ],
      "name": "addAlbumJourney",
      "outputs": [],
      "stateMutability": "nonpayable",
      "type": "function"
    },
    {
      "inputs": [
        {
          "internalType": "uint256",
          "name": "index",
          "type": "uint256"
        },
        {
          "internalType": "string",
          "name": "name",
          "type": "string"
        }
      ],
      "name": "addDestination",
      "outputs": [],
      "stateMutability": "nonpayable",
      "type": "function"
    },
    {
      "inputs": [
        {
          "internalType": "uint256",
          "name": "desIndex",
          "type": "uint256"
        },
        {
          "internalType": "uint256",
          "name": "albumId",
          "type": "uint256"
        }
      ],
      "name": "addDestinationInAlbum",
      "outputs": [],
      "stateMutability": "nonpayable",
      "type": "function"
    },
    {
      "inputs": [
        {
          "internalType": "uint256",
          "name": "id",
          "type": "uint256"
        }
      ],
      "name": "addTicket",
      "outputs": [],
      "stateMutability": "nonpayable",
      "type": "function"
    },
    {
      "inputs": [
        {
          "internalType": "address",
          "name": "",
          "type": "address"
        },
        {
          "internalType": "uint256",
          "name": "",
          "type": "uint256"
        },
        {
          "internalType": "uint256",
          "name": "",
          "type": "uint256"
        }
      ],
      "name": "albumDestination",
      "outputs": [
        {
          "internalType": "uint256",
          "name": "index",
          "type": "uint256"
        },
        {
          "internalType": "string",
          "name": "desName",
          "type": "string"
        }
      ],
      "stateMutability": "view",
      "type": "function"
    },
    {
      "inputs": [
        {
          "internalType": "address",
          "name": "",
          "type": "address"
        },
        {
          "internalType": "uint256",
          "name": "",
          "type": "uint256"
        },
        {
          "internalType": "uint256",
          "name": "",
          "type": "uint256"
        }
      ],
      "name": "albumJourneys",
      "outputs": [
        {
          "internalType": "string",
          "name": "desName",
          "type": "string"
        },
        {
          "internalType": "uint256",
          "name": "arrivalDate",
          "type": "uint256"
        },
        {
          "internalType": "string",
          "name": "review",
          "type": "string"
        },
        {
          "internalType": "uint256",
          "name": "rate",
          "type": "uint256"
        }
      ],
      "stateMutability": "view",
      "type": "function"
    },
    {
      "inputs": [
        {
          "internalType": "address",
          "name": "owner",
          "type": "address"
        },
        {
          "internalType": "address",
          "name": "spender",
          "type": "address"
        }
      ],
      "name": "allowance",
      "outputs": [
        {
          "internalType": "uint256",
          "name": "",
          "type": "uint256"
        }
      ],
      "stateMutability": "view",
      "type": "function"
    },
    {
      "inputs": [
        {
          "internalType": "address",
          "name": "spender",
          "type": "address"
        },
        {
          "internalType": "uint256",
          "name": "amount",
          "type": "uint256"
        }
      ],
      "name": "approve",
      "outputs": [
        {
          "internalType": "bool",
          "name": "",
          "type": "bool"
        }
      ],
      "stateMutability": "nonpayable",
      "type": "function"
    },
    {
      "inputs": [
        {
          "internalType": "address",
          "name": "account",
          "type": "address"
        }
      ],
      "name": "balanceOf",
      "outputs": [
        {
          "internalType": "uint256",
          "name": "",
          "type": "uint256"
        }
      ],
      "stateMutability": "view",
      "type": "function"
    },
    {
      "inputs": [
        {
          "internalType": "uint256",
          "name": "QRcode",
          "type": "uint256"
        },
        {
          "internalType": "string",
          "name": "review",
          "type": "string"
        },
        {
          "internalType": "uint256",
          "name": "rate",
          "type": "uint256"
        },
        {
          "internalType": "uint256",
          "name": "ticketID",
          "type": "uint256"
        }
      ],
      "name": "checkIn",
      "outputs": [
        {
          "internalType": "bool",
          "name": "",
          "type": "bool"
        }
      ],
      "stateMutability": "nonpayable",
      "type": "function"
    },
    {
      "inputs": [
        {
          "internalType": "bytes32",
          "name": "_hashedMessage",
          "type": "bytes32"
        },
        {
          "internalType": "uint8",
          "name": "_v",
          "type": "uint8"
        },
        {
          "internalType": "bytes32",
          "name": "_r",
          "type": "bytes32"
        },
        {
          "internalType": "bytes32",
          "name": "_s",
          "type": "bytes32"
        }
      ],
      "name": "claimPrize",
      "outputs": [
        {
          "internalType": "bool",
          "name": "",
          "type": "bool"
        }
      ],
      "stateMutability": "view",
      "type": "function"
    },
    {
      "inputs": [
        {
          "internalType": "uint256",
          "name": "_id",
          "type": "uint256"
        },
        {
          "internalType": "string",
          "name": "_name",
          "type": "string"
        }
      ],
      "name": "createAlbum",
      "outputs": [],
      "stateMutability": "nonpayable",
      "type": "function"
    },
    {
      "inputs": [],
      "name": "decimals",
      "outputs": [
        {
          "internalType": "uint8",
          "name": "",
          "type": "uint8"
        }
      ],
      "stateMutability": "view",
      "type": "function"
    },
    {
      "inputs": [
        {
          "internalType": "address",
          "name": "spender",
          "type": "address"
        },
        {
          "internalType": "uint256",
          "name": "subtractedValue",
          "type": "uint256"
        }
      ],
      "name": "decreaseAllowance",
      "outputs": [
        {
          "internalType": "bool",
          "name": "",
          "type": "bool"
        }
      ],
      "stateMutability": "nonpayable",
      "type": "function"
    },
    {
      "inputs": [
        {
          "internalType": "uint256",
          "name": "",
          "type": "uint256"
        },
        {
          "internalType": "uint256",
          "name": "",
          "type": "uint256"
        }
      ],
      "name": "destinationRates",
      "outputs": [
        {
          "internalType": "uint256",
          "name": "",
          "type": "uint256"
        }
      ],
      "stateMutability": "view",
      "type": "function"
    },
    {
      "inputs": [
        {
          "internalType": "uint256",
          "name": "id",
          "type": "uint256"
        }
      ],
      "name": "getAlbumCheckIn",
      "outputs": [
        {
          "components": [
            {
              "internalType": "string",
              "name": "desName",
              "type": "string"
            },
            {
              "internalType": "uint256",
              "name": "arrivalDate",
              "type": "uint256"
            },
            {
              "internalType": "string",
              "name": "review",
              "type": "string"
            },
            {
              "internalType": "uint256",
              "name": "rate",
              "type": "uint256"
            }
          ],
          "internalType": "struct TouristConTract.Journey[]",
          "name": "",
          "type": "tuple[]"
        }
      ],
      "stateMutability": "view",
      "type": "function"
    },
    {
      "inputs": [
        {
          "internalType": "uint256",
          "name": "id",
          "type": "uint256"
        }
      ],
      "name": "getAlbumNotCheckIn",
      "outputs": [
        {
          "components": [
            {
              "internalType": "uint256",
              "name": "index",
              "type": "uint256"
            },
            {
              "internalType": "string",
              "name": "desName",
              "type": "string"
            }
          ],
          "internalType": "struct TouristConTract.Destination[]",
          "name": "",
          "type": "tuple[]"
        }
      ],
      "stateMutability": "view",
      "type": "function"
    },
    {
      "inputs": [],
      "name": "getAllDestination",
      "outputs": [
        {
          "components": [
            {
              "internalType": "uint256",
              "name": "index",
              "type": "uint256"
            },
            {
              "internalType": "string",
              "name": "desName",
              "type": "string"
            }
          ],
          "internalType": "struct TouristConTract.Destination[]",
          "name": "",
          "type": "tuple[]"
        }
      ],
      "stateMutability": "view",
      "type": "function"
    },
    {
      "inputs": [],
      "name": "getAllJourney",
      "outputs": [
        {
          "components": [
            {
              "internalType": "string",
              "name": "desName",
              "type": "string"
            },
            {
              "internalType": "uint256",
              "name": "arrivalDate",
              "type": "uint256"
            },
            {
              "internalType": "string",
              "name": "review",
              "type": "string"
            },
            {
              "internalType": "uint256",
              "name": "rate",
              "type": "uint256"
            }
          ],
          "internalType": "struct TouristConTract.Journey[]",
          "name": "",
          "type": "tuple[]"
        }
      ],
      "stateMutability": "view",
      "type": "function"
    },
    {
      "inputs": [
        {
          "internalType": "address",
          "name": "add",
          "type": "address"
        }
      ],
      "name": "getBalance",
      "outputs": [
        {
          "internalType": "uint256",
          "name": "",
          "type": "uint256"
        }
      ],
      "stateMutability": "view",
      "type": "function"
    },
    {
      "inputs": [
        {
          "internalType": "bytes32",
          "name": "_messageHash",
          "type": "bytes32"
        }
      ],
      "name": "getEthSignedMessageHash",
      "outputs": [
        {
          "internalType": "bytes32",
          "name": "",
          "type": "bytes32"
        }
      ],
      "stateMutability": "pure",
      "type": "function"
    },
    {
      "inputs": [
        {
          "internalType": "address",
          "name": "_to",
          "type": "address"
        },
        {
          "internalType": "uint256",
          "name": "_amount",
          "type": "uint256"
        },
        {
          "internalType": "string",
          "name": "_message",
          "type": "string"
        },
        {
          "internalType": "uint256",
          "name": "_nonce",
          "type": "uint256"
        }
      ],
      "name": "getMessageHash",
      "outputs": [
        {
          "internalType": "bytes32",
          "name": "",
          "type": "bytes32"
        }
      ],
      "stateMutability": "pure",
      "type": "function"
    },
    {
      "inputs": [
        {
          "internalType": "address",
          "name": "userAddress",
          "type": "address"
        },
        {
          "internalType": "uint256",
          "name": "role",
          "type": "uint256"
        }
      ],
      "name": "grantRole",
      "outputs": [],
      "stateMutability": "nonpayable",
      "type": "function"
    },
    {
      "inputs": [
        {
          "internalType": "address",
          "name": "spender",
          "type": "address"
        },
        {
          "internalType": "uint256",
          "name": "addedValue",
          "type": "uint256"
        }
      ],
      "name": "increaseAllowance",
      "outputs": [
        {
          "internalType": "bool",
          "name": "",
          "type": "bool"
        }
      ],
      "stateMutability": "nonpayable",
      "type": "function"
    },
    {
      "inputs": [],
      "name": "name",
      "outputs": [
        {
          "internalType": "string",
          "name": "",
          "type": "string"
        }
      ],
      "stateMutability": "view",
      "type": "function"
    },
    {
      "inputs": [
        {
          "internalType": "uint256",
          "name": "",
          "type": "uint256"
        }
      ],
      "name": "noPeopleCheckIn",
      "outputs": [
        {
          "internalType": "uint256",
          "name": "",
          "type": "uint256"
        }
      ],
      "stateMutability": "view",
      "type": "function"
    },
    {
      "inputs": [
        {
          "internalType": "bytes32",
          "name": "_ethSignedMessageHash",
          "type": "bytes32"
        },
        {
          "internalType": "bytes",
          "name": "_signature",
          "type": "bytes"
        }
      ],
      "name": "recoverSigner",
      "outputs": [
        {
          "internalType": "address",
          "name": "",
          "type": "address"
        }
      ],
      "stateMutability": "pure",
      "type": "function"
    },
    {
      "inputs": [
        {
          "internalType": "string",
          "name": "name",
          "type": "string"
        },
        {
          "internalType": "uint256",
          "name": "age",
          "type": "uint256"
        }
      ],
      "name": "register",
      "outputs": [],
      "stateMutability": "nonpayable",
      "type": "function"
    },
    {
      "inputs": [
        {
          "internalType": "bytes",
          "name": "sig",
          "type": "bytes"
        }
      ],
      "name": "splitSignature",
      "outputs": [
        {
          "internalType": "bytes32",
          "name": "r",
          "type": "bytes32"
        },
        {
          "internalType": "bytes32",
          "name": "s",
          "type": "bytes32"
        },
        {
          "internalType": "uint8",
          "name": "v",
          "type": "uint8"
        }
      ],
      "stateMutability": "pure",
      "type": "function"
    },
    {
      "inputs": [],
      "name": "symbol",
      "outputs": [
        {
          "internalType": "string",
          "name": "",
          "type": "string"
        }
      ],
      "stateMutability": "view",
      "type": "function"
    },
    {
      "inputs": [
        {
          "internalType": "uint256",
          "name": "",
          "type": "uint256"
        }
      ],
      "name": "tickets",
      "outputs": [
        {
          "internalType": "uint256",
          "name": "id",
          "type": "uint256"
        },
        {
          "internalType": "bool",
          "name": "isUsed",
          "type": "bool"
        }
      ],
      "stateMutability": "view",
      "type": "function"
    },
    {
      "inputs": [],
      "name": "totalSupply",
      "outputs": [
        {
          "internalType": "uint256",
          "name": "",
          "type": "uint256"
        }
      ],
      "stateMutability": "view",
      "type": "function"
    },
    {
      "inputs": [
        {
          "internalType": "address",
          "name": "",
          "type": "address"
        },
        {
          "internalType": "uint256",
          "name": "",
          "type": "uint256"
        }
      ],
      "name": "touristAlbums",
      "outputs": [
        {
          "internalType": "uint256",
          "name": "id",
          "type": "uint256"
        },
        {
          "internalType": "string",
          "name": "name",
          "type": "string"
        }
      ],
      "stateMutability": "view",
      "type": "function"
    },
    {
      "inputs": [
        {
          "internalType": "address",
          "name": "",
          "type": "address"
        }
      ],
      "name": "touristIdentify",
      "outputs": [
        {
          "internalType": "string",
          "name": "name",
          "type": "string"
        },
        {
          "internalType": "uint256",
          "name": "age",
          "type": "uint256"
        },
        {
          "internalType": "bool",
          "name": "signup",
          "type": "bool"
        },
        {
          "internalType": "address",
          "name": "touristAddress",
          "type": "address"
        }
      ],
      "stateMutability": "view",
      "type": "function"
    },
    {
      "inputs": [
        {
          "internalType": "address",
          "name": "",
          "type": "address"
        },
        {
          "internalType": "uint256",
          "name": "",
          "type": "uint256"
        }
      ],
      "name": "touristJourneys",
      "outputs": [
        {
          "internalType": "string",
          "name": "desName",
          "type": "string"
        },
        {
          "internalType": "uint256",
          "name": "arrivalDate",
          "type": "uint256"
        },
        {
          "internalType": "string",
          "name": "review",
          "type": "string"
        },
        {
          "internalType": "uint256",
          "name": "rate",
          "type": "uint256"
        }
      ],
      "stateMutability": "view",
      "type": "function"
    },
    {
      "inputs": [
        {
          "internalType": "address",
          "name": "to",
          "type": "address"
        },
        {
          "internalType": "uint256",
          "name": "amount",
          "type": "uint256"
        }
      ],
      "name": "transfer",
      "outputs": [
        {
          "internalType": "bool",
          "name": "",
          "type": "bool"
        }
      ],
      "stateMutability": "nonpayable",
      "type": "function"
    },
    {
      "inputs": [
        {
          "internalType": "address",
          "name": "from",
          "type": "address"
        },
        {
          "internalType": "address",
          "name": "to",
          "type": "address"
        },
        {
          "internalType": "uint256",
          "name": "amount",
          "type": "uint256"
        }
      ],
      "name": "transferFrom",
      "outputs": [
        {
          "internalType": "bool",
          "name": "",
          "type": "bool"
        }
      ],
      "stateMutability": "nonpayable",
      "type": "function"
    },
    {
      "inputs": [
        {
          "internalType": "uint256",
          "name": "id",
          "type": "uint256"
        }
      ],
      "name": "validAddIDTicket",
      "outputs": [
        {
          "internalType": "bool",
          "name": "",
          "type": "bool"
        }
      ],
      "stateMutability": "view",
      "type": "function"
    },
    {
      "inputs": [
        {
          "internalType": "address",
          "name": "_signer",
          "type": "address"
        },
        {
          "internalType": "address",
          "name": "_to",
          "type": "address"
        },
        {
          "internalType": "uint256",
          "name": "_amount",
          "type": "uint256"
        },
        {
          "internalType": "string",
          "name": "_message",
          "type": "string"
        },
        {
          "internalType": "uint256",
          "name": "_nonce",
          "type": "uint256"
        },
        {
          "internalType": "bytes",
          "name": "signature",
          "type": "bytes"
        }
      ],
      "name": "verify",
      "outputs": [
        {
          "internalType": "bool",
          "name": "",
          "type": "bool"
        }
      ],
      "stateMutability": "pure",
      "type": "function"
    }
  ],
  "bytecode": "0x60806040523480156200001157600080fd5b506040518060400160405280600781526020017f4443546f6b656e000000000000000000000000000000000000000000000000008152506040518060400160405280600281526020017f587500000000000000000000000000000000000000000000000000000000000081525081600390816200008f91906200093a565b508060049081620000a191906200093a565b505050600a6040518060400160405280600181526020016040518060400160405280600581526020017f486f54617900000000000000000000000000000000000000000000000000000081525081525090806001815401808255809150506001900390600052602060002090600202016000909190919091506000820151816000015560208201518160010190816200013b91906200093a565b505050600a6040518060400160405280600281526020016040518060400160405280600381526020017f48434d00000000000000000000000000000000000000000000000000000000008152508152509080600181540180825580915050600190039060005260206000209060020201600090919091909150600082015181600001556020820151816001019081620001d591906200093a565b505050600a6040518060400160405280600381526020016040518060400160405280600281526020017f484e00000000000000000000000000000000000000000000000000000000000081525081525090806001815401808255809150506001900390600052602060002090600202016000909190919091506000820151816000015560208201518160010190816200026f91906200093a565b505050600a6040518060400160405280600481526020016040518060400160405280600781526020017f566965744e616d0000000000000000000000000000000000000000000000000081525081525090806001815401808255809150506001900390600052602060002090600202016000909190919091506000820151816000015560208201518160010190816200030991906200093a565b505050600a6040518060400160405280600581526020016040518060400160405280600781526020017f42616e674b6f6b000000000000000000000000000000000000000000000000008152508152509080600181540180825580915050600190039060005260206000209060020201600090919091909150600082015181600001556020820151816001019081620003a391906200093a565b505050600a6040518060400160405280600681526020016040518060400160405280600681526020017f5068756b6574000000000000000000000000000000000000000000000000000081525081525090806001815401808255809150506001900390600052602060002090600202016000909190919091506000820151816000015560208201518160010190816200043d91906200093a565b5050506009604051806040016040528065650e124ef1c781526020016000151581525090806001815401808255809150506001900390600052602060002090600202016000909190919091506000820151816000015560208201518160010160006101000a81548160ff02191690831515021790555050506009604051806040016040528065ca1c249de38e81526020016000151581525090806001815401808255809150506001900390600052602060002090600202016000909190919091506000820151816000015560208201518160010160006101000a81548160ff02191690831515021790555050506009604051806040016040528066012f2a36ecd55581526020016000151581525090806001815401808255809150506001900390600052602060002090600202016000909190919091506000820151816000015560208201518160010160006101000a81548160ff02191690831515021790555050506009604051806040016040528066019438493bc71c81526020016000151581525090806001815401808255809150506001900390600052602060002090600202016000909190919091506000820151816000015560208201518160010160006101000a81548160ff02191690831515021790555050506006339080600181540180825580915050600190039060005260206000200160009091909190916101000a81548173ffffffffffffffffffffffffffffffffffffffff021916908373ffffffffffffffffffffffffffffffffffffffff16021790555033600560006101000a81548173ffffffffffffffffffffffffffffffffffffffff021916908373ffffffffffffffffffffffffffffffffffffffff16021790555062000a21565b600081519050919050565b7f4e487b7100000000000000000000000000000000000000000000000000000000600052604160045260246000fd5b7f4e487b7100000000000000000000000000000000000000000000000000000000600052602260045260246000fd5b600060028204905060018216806200074257607f821691505b602082108103620007585762000757620006fa565b5b50919050565b60008190508160005260206000209050919050565b60006020601f8301049050919050565b600082821b905092915050565b600060088302620007c27fffffffffffffffffffffffffffffffffffffffffffffffffffffffffffffffff8262000783565b620007ce868362000783565b95508019841693508086168417925050509392505050565b6000819050919050565b6000819050919050565b60006200081b620008156200080f84620007e6565b620007f0565b620007e6565b9050919050565b6000819050919050565b6200083783620007fa565b6200084f620008468262000822565b84845462000790565b825550505050565b600090565b6200086662000857565b620008738184846200082c565b505050565b5b818110156200089b576200088f6000826200085c565b60018101905062000879565b5050565b601f821115620008ea57620008b4816200075e565b620008bf8462000773565b81016020851015620008cf578190505b620008e7620008de8562000773565b83018262000878565b50505b505050565b600082821c905092915050565b60006200090f60001984600802620008ef565b1980831691505092915050565b60006200092a8383620008fc565b9150826002028217905092915050565b6200094582620006c0565b67ffffffffffffffff811115620009615762000960620006cb565b5b6200096d825462000729565b6200097a8282856200089f565b600060209050601f831160018114620009b257600084156200099d578287015190505b620009a985826200091c565b86555062000a19565b601f198416620009c2866200075e565b60005b82811015620009ec57848901518255600182019150602085019450602081019050620009c5565b8683101562000a0c578489015162000a08601f891682620008fc565b8355505b6001600288020188555050505b505050505050565b61598c8062000a316000396000f3fe608060405234801561001057600080fd5b506004361061023d5760003560e01c8063788521591161013b578063abe5026a116100b8578063ea87152b1161007c578063ea87152b146107c9578063ebfbdec9146107e5578063f2fa49b414610815578063f8b2cb4f14610848578063fa540801146108785761023d565b8063abe5026a146106ed578063b42913191461071d578063b9c3b1b914610739578063be4755a114610769578063dd62ed3e146107995761023d565b80639e26c494116100ff5780639e26c494146105fb578063a35f8a401461062b578063a457c2d71461065b578063a7bb58031461068b578063a9059cbb146106bd5761023d565b8063788521591461054257806388fbd65b1461057357806390db6a201461058f57806395d89b41146105ad57806397aba7f9146105cb5761023d565b806339509351116101c9578063625336651161018d578063625336651461048b57806363f8f213146104be578063701a0e0d146104da57806370a08231146104f6578063732a7c25146105265761023d565b806339509351146103ad5780633c09e2fd146103dd57806350b44712146103f95780635cab0d001461042a5780636012f3be1461045a5761023d565b8063217e2a8c11610210578063217e2a8c146102cc57806323b872dd146102fc578063285f293b1461032c578063313ce5671461035c578063374936821461037a5761023d565b806306fdde0314610242578063095ea7b3146102605780630f13090e1461029057806318160ddd146102ae575b600080fd5b61024a6108a8565b60405161025791906139bd565b60405180910390f35b61027a60048036038101906102759190613a87565b61093a565b6040516102879190613ae2565b60405180910390f35b61029861095d565b6040516102a59190613c82565b60405180910390f35b6102b6610b31565b6040516102c39190613cb3565b60405180910390f35b6102e660048036038101906102e19190613e03565b610b3b565b6040516102f39190613ae2565b60405180910390f35b61031660048036038101906103119190613e86565b6111db565b6040516103239190613ae2565b60405180910390f35b61034660048036038101906103419190613ed9565b61120a565b6040516103539190613c82565b60405180910390f35b6103646113f1565b6040516103719190613f22565b60405180910390f35b610394600480360381019061038f9190613a87565b6113fa565b6040516103a49493929190613f3d565b60405180910390f35b6103c760048036038101906103c29190613a87565b611557565b6040516103d49190613ae2565b60405180910390f35b6103f760048036038101906103f29190613a87565b61158e565b005b610413600480360381019061040e9190613ed9565b61179d565b604051610421929190613f90565b60405180910390f35b610444600480360381019061043f9190613ed9565b6117de565b6040516104519190613cb3565b60405180910390f35b610474600480360381019061046f9190613a87565b6117f6565b604051610482929190613fb9565b60405180910390f35b6104a560048036038101906104a09190613fe9565b6118bf565b6040516104b59493929190614025565b60405180910390f35b6104d860048036038101906104d39190614071565b6119a4565b005b6104f460048036038101906104ef91906140cd565b611b3e565b005b610510600480360381019061050b9190613fe9565b61208f565b60405161051d9190613cb3565b60405180910390f35b610540600480360381019061053b9190614071565b6120d7565b005b61055c60048036038101906105579190614120565b6121b3565b60405161056a929190613fb9565b60405180910390f35b61058d60048036038101906105889190614173565b612289565b005b610597612490565b6040516105a491906142b2565b60405180910390f35b6105b561258b565b6040516105c291906139bd565b60405180910390f35b6105e560048036038101906105e091906143ab565b61261d565b6040516105f29190614407565b60405180910390f35b61061560048036038101906106109190613ed9565b61268c565b6040516106229190613ae2565b60405180910390f35b61064560048036038101906106409190614422565b6126f5565b60405161065291906144b4565b60405180910390f35b61067560048036038101906106709190613a87565b61272e565b6040516106829190613ae2565b60405180910390f35b6106a560048036038101906106a091906144cf565b6127a5565b6040516106b493929190614518565b60405180910390f35b6106d760048036038101906106d29190613a87565b61280d565b6040516106e49190613ae2565b60405180910390f35b6107076004803603810190610702919061454f565b612830565b6040516107149190613ae2565b60405180910390f35b61073760048036038101906107329190613ed9565b612894565b005b610753600480360381019061074e9190614640565b612a33565b6040516107609190613ae2565b60405180910390f35b610783600480360381019061077e9190613ed9565b612b5f565b60405161079091906142b2565b60405180910390f35b6107b360048036038101906107ae91906146a7565b612caa565b6040516107c09190613cb3565b60405180910390f35b6107e360048036038101906107de91906146e7565b612d31565b005b6107ff60048036038101906107fa9190614173565b61302a565b60405161080c9190613cb3565b60405180910390f35b61082f600480360381019061082a9190614120565b61305b565b60405161083f9493929190613f3d565b60405180910390f35b610862600480360381019061085d9190613fe9565b6131c5565b60405161086f9190613cb3565b60405180910390f35b610892600480360381019061088d9190614743565b6131cc565b60405161089f91906144b4565b60405180910390f35b6060600380546108b79061479f565b80601f01602080910402602001604051908101604052809291908181526020018280546108e39061479f565b80156109305780601f1061090557610100808354040283529160200191610930565b820191906000526020600020905b81548152906001019060200180831161091357829003601f168201915b5050505050905090565b6000806109456131fc565b9050610952818585613204565b600191505092915050565b6060600d60003373ffffffffffffffffffffffffffffffffffffffff1673ffffffffffffffffffffffffffffffffffffffff168152602001908152602001600020805480602002602001604051908101604052809291908181526020016000905b82821015610b2857838290600052602060002090600402016040518060800160405290816000820180546109f19061479f565b80601f0160208091040260200160405190810160405280929190818152602001828054610a1d9061479f565b8015610a6a5780601f10610a3f57610100808354040283529160200191610a6a565b820191906000526020600020905b815481529060010190602001808311610a4d57829003601f168201915b5050505050815260200160018201548152602001600282018054610a8d9061479f565b80601f0160208091040260200160405190810160405280929190818152602001828054610ab99061479f565b8015610b065780601f10610adb57610100808354040283529160200191610b06565b820191906000526020600020905b815481529060010190602001808311610ae957829003601f168201915b50505050508152602001600382015481525050815260200190600101906109be565b50505050905090565b6000600254905090565b6000808310158015610b4e575060058311155b610b8d576040517f08c379a0000000000000000000000000000000000000000000000000000000008152600401610b849061481c565b60405180910390fd5b60008060005b600980549050811015610c575760098181548110610bb457610bb361483c565b5b9060005260206000209060020201600001548503610c445760098181548110610be057610bdf61483c565b5b906000526020600020906002020160010160009054906101000a900460ff1615610c3f576040517f08c379a0000000000000000000000000000000000000000000000000000000008152600401610c36906148b7565b60405180910390fd5b600191505b8080610c4f90614906565b915050610b93565b5080610c98576040517f08c379a0000000000000000000000000000000000000000000000000000000008152600401610c8f906149c0565b60405180910390fd5b606060005b600a8054905081101561114757600a8181548110610cbe57610cbd61483c565b5b906000526020600020906002020160000154890361113657600a8181548110610cea57610ce961483c565b5b90600052602060002090600202016001018054610d069061479f565b80601f0160208091040260200160405190810160405280929190818152602001828054610d329061479f565b8015610d7f5780601f10610d5457610100808354040283529160200191610d7f565b820191906000526020600020905b815481529060010190602001808311610d6257829003601f168201915b5050505050915060005b600d60003373ffffffffffffffffffffffffffffffffffffffff1673ffffffffffffffffffffffffffffffffffffffff16815260200190815260200160002080549050811015610f5157600d60003373ffffffffffffffffffffffffffffffffffffffff1673ffffffffffffffffffffffffffffffffffffffff1681526020019081526020016000208181548110610e2457610e2361483c565b5b9060005260206000209060040201600001604051602001610e459190614a83565b6040516020818303038152906040528051906020012083604051602001610e6c9190614acb565b6040516020818303038152906040528051906020012003610f3e5762015180600d60003373ffffffffffffffffffffffffffffffffffffffff1673ffffffffffffffffffffffffffffffffffffffff1681526020019081526020016000208281548110610edc57610edb61483c565b5b906000526020600020906004020160010154610ef89190614ae2565b4211610f39576040517f08c379a0000000000000000000000000000000000000000000000000000000008152600401610f3090614b62565b60405180910390fd5b610f51565b8080610f4990614906565b915050610d89565b5060019350601360008a81526020019081526020016000206000815480929190610f7a90614906565b9190505550601460008a8152602001908152602001600020879080600181540180825580915050600190039060005260206000200160009091909190915055600d60003373ffffffffffffffffffffffffffffffffffffffff1673ffffffffffffffffffffffffffffffffffffffff1681526020019081526020016000206040518060800160405280600a84815481106110175761101661483c565b5b906000526020600020906002020160010180546110339061479f565b80601f016020809104026020016040519081016040528092919081815260200182805461105f9061479f565b80156110ac5780601f10611081576101008083540402835291602001916110ac565b820191906000526020600020905b81548152906001019060200180831161108f57829003601f168201915b505050505081526020014281526020018a815260200189815250908060018154018082558091505060019003906000526020600020906004020160009091909190915060008201518160000190816111049190614d19565b506020820151816001015560408201518160020190816111249190614d19565b50606082015181600301555050611147565b8061114090614906565b9050610c9d565b50600115158315151461118f576040517f08c379a000000000000000000000000000000000000000000000000000000000815260040161118690614e37565b60405180910390fd5b7ff83eaec4c62893a428ace5afa818b3d567adbf8863863f06d88ae28d3b402ed5818888886040516111c49493929190614e57565b60405180910390a160019350505050949350505050565b6000806111e66131fc565b90506111f38582856133cd565b6111fe858585613459565b60019150509392505050565b6060601060003373ffffffffffffffffffffffffffffffffffffffff1673ffffffffffffffffffffffffffffffffffffffff1681526020019081526020016000206000838152602001908152602001600020805480602002602001604051908101604052809291908181526020016000905b828210156113e657838290600052602060002090600402016040518060800160405290816000820180546112af9061479f565b80601f01602080910402602001604051908101604052809291908181526020018280546112db9061479f565b80156113285780601f106112fd57610100808354040283529160200191611328565b820191906000526020600020905b81548152906001019060200180831161130b57829003601f168201915b505050505081526020016001820154815260200160028201805461134b9061479f565b80601f01602080910402602001604051908101604052809291908181526020018280546113779061479f565b80156113c45780601f10611399576101008083540402835291602001916113c4565b820191906000526020600020905b8154815290600101906020018083116113a757829003601f168201915b505050505081526020016003820154815250508152602001906001019061127c565b505050509050919050565b60006012905090565b600d602052816000526040600020818154811061141657600080fd5b90600052602060002090600402016000915091505080600001805461143a9061479f565b80601f01602080910402602001604051908101604052809291908181526020018280546114669061479f565b80156114b35780601f10611488576101008083540402835291602001916114b3565b820191906000526020600020905b81548152906001019060200180831161149657829003601f168201915b5050505050908060010154908060020180546114ce9061479f565b80601f01602080910402602001604051908101604052809291908181526020018280546114fa9061479f565b80156115475780601f1061151c57610100808354040283529160200191611547565b820191906000526020600020905b81548152906001019060200180831161152a57829003601f168201915b5050505050908060030154905084565b6000806115626131fc565b90506115838185856115748589612caa565b61157e9190614ae2565b613204565b600191505092915050565b6000805b60068054905081101561162a57600681815481106115b3576115b261483c565b5b9060005260206000200160009054906101000a900473ffffffffffffffffffffffffffffffffffffffff1673ffffffffffffffffffffffffffffffffffffffff163373ffffffffffffffffffffffffffffffffffffffff1603611619576001915061162a565b8061162390614906565b9050611592565b506001151581151514611672576040517f08c379a000000000000000000000000000000000000000000000000000000000815260040161166990614f1c565b60405180910390fd5b60018214806116815750600282145b6116c0576040517f08c379a00000000000000000000000000000000000000000000000000000000081526004016116b790614fae565b60405180910390fd5b6001820361172c576006839080600181540180825580915050600190039060005260206000200160009091909190916101000a81548173ffffffffffffffffffffffffffffffffffffffff021916908373ffffffffffffffffffffffffffffffffffffffff1602179055505b60028203611798576007839080600181540180825580915050600190039060005260206000200160009091909190916101000a81548173ffffffffffffffffffffffffffffffffffffffff021916908373ffffffffffffffffffffffffffffffffffffffff1602179055505b505050565b600981815481106117ad57600080fd5b90600052602060002090600202016000915090508060000154908060010160009054906101000a900460ff16905082565b60136020528060005260406000206000915090505481565b600f602052816000526040600020818154811061181257600080fd5b90600052602060002090600202016000915091505080600001549080600101805461183c9061479f565b80601f01602080910402602001604051908101604052809291908181526020018280546118689061479f565b80156118b55780601f1061188a576101008083540402835291602001916118b5565b820191906000526020600020905b81548152906001019060200180831161189857829003601f168201915b5050505050905082565b600c6020528060005260406000206000915090508060000180546118e29061479f565b80601f016020809104026020016040519081016040528092919081815260200182805461190e9061479f565b801561195b5780601f106119305761010080835404028352916020019161195b565b820191906000526020600020905b81548152906001019060200180831161193e57829003601f168201915b5050505050908060010154908060020160009054906101000a900460ff16908060020160019054906101000a900473ffffffffffffffffffffffffffffffffffffffff16905084565b6000805b600680549050811015611a4057600681815481106119c9576119c861483c565b5b9060005260206000200160009054906101000a900473ffffffffffffffffffffffffffffffffffffffff1673ffffffffffffffffffffffffffffffffffffffff163373ffffffffffffffffffffffffffffffffffffffff1603611a2f5760019150611a40565b80611a3990614906565b90506119a8565b506001151581151514611a88576040517f08c379a0000000000000000000000000000000000000000000000000000000008152600401611a7f90614f1c565b60405180910390fd5b60011515611a95846136cf565b151514611ad7576040517f08c379a0000000000000000000000000000000000000000000000000000000008152600401611ace9061501a565b60405180910390fd5b600a6040518060400160405280858152602001848152509080600181540180825580915050600190039060005260206000209060020201600090919091909150600082015181600001556020820151816001019081611b369190614d19565b505050505050565b60006060611b4a613905565b60005b600a80549050811015611c4e57600a8181548110611b6e57611b6d61483c565b5b9060005260206000209060020201600001548703611c3b57600a8181548110611b9a57611b9961483c565b5b90600052602060002090600202016001018054611bb69061479f565b80601f0160208091040260200160405190810160405280929190818152602001828054611be29061479f565b8015611c2f5780601f10611c0457610100808354040283529160200191611c2f565b820191906000526020600020905b815481529060010190602001808311611c1257829003601f168201915b50505050509250611c4e565b8080611c4690614906565b915050611b4d565b5060005b600d60003373ffffffffffffffffffffffffffffffffffffffff1673ffffffffffffffffffffffffffffffffffffffff1681526020019081526020016000208054905081101561200557600d60003373ffffffffffffffffffffffffffffffffffffffff1673ffffffffffffffffffffffffffffffffffffffff1681526020019081526020016000208181548110611ced57611cec61483c565b5b9060005260206000209060040201600001604051602001611d0e9190614a83565b6040516020818303038152906040528051906020012083604051602001611d359190614acb565b60405160208183030381529060405280519060200120148015611db9575084600d60003373ffffffffffffffffffffffffffffffffffffffff1673ffffffffffffffffffffffffffffffffffffffff1681526020019081526020016000208281548110611da557611da461483c565b5b906000526020600020906004020160010154145b15611ff2576040518060800160405280848152602001868152602001600d60003373ffffffffffffffffffffffffffffffffffffffff1673ffffffffffffffffffffffffffffffffffffffff1681526020019081526020016000208381548110611e2657611e2561483c565b5b90600052602060002090600402016002018054611e429061479f565b80601f0160208091040260200160405190810160405280929190818152602001828054611e6e9061479f565b8015611ebb5780601f10611e9057610100808354040283529160200191611ebb565b820191906000526020600020905b815481529060010190602001808311611e9e57829003601f168201915b50505050508152602001600d60003373ffffffffffffffffffffffffffffffffffffffff1673ffffffffffffffffffffffffffffffffffffffff1681526020019081526020016000208381548110611f1657611f1561483c565b5b9060005260206000209060040201600301548152509150601060003373ffffffffffffffffffffffffffffffffffffffff1673ffffffffffffffffffffffffffffffffffffffff16815260200190815260200160002060008781526020019081526020016000208290806001815401808255809150506001900390600052602060002090600402016000909190919091506000820151816000019081611fbc9190614d19565b50602082015181600101556040820151816002019081611fdc9190614d19565b5060608201518160030155505060019350612005565b8080611ffd90614906565b915050611c52565b5082612046576040517f08c379a000000000000000000000000000000000000000000000000000000000815260040161203d90615086565b60405180910390fd5b7fed731b85c23d098bf862e47c2453676e6cb01bdb0c3214538cb8ec72f4a07b0f61207086613736565b8260405161207f929190615110565b60405180910390a1505050505050565b60008060008373ffffffffffffffffffffffffffffffffffffffff1673ffffffffffffffffffffffffffffffffffffffff168152602001908152602001600020549050919050565b600f60003373ffffffffffffffffffffffffffffffffffffffff1673ffffffffffffffffffffffffffffffffffffffff16815260200190815260200160002060405180604001604052808481526020018381525090806001815401808255809150506001900390600052602060002090600202016000909190919091506000820151816000015560208201518160010190816121739190614d19565b5050507ff538047aa51f8b732c1850d69564ec0d033aca661921dba9871bf8feff7a435f82826040516121a7929190613fb9565b60405180910390a15050565b601160205282600052604060002060205281600052604060002081815481106121db57600080fd5b906000526020600020906002020160009250925050508060000154908060010180546122069061479f565b80601f01602080910402602001604051908101604052809291908181526020018280546122329061479f565b801561227f5780601f106122545761010080835404028352916020019161227f565b820191906000526020600020905b81548152906001019060200180831161226257829003601f168201915b5050505050905082565b606060005b600a8054905081101561244957600a81815481106122af576122ae61483c565b5b906000526020600020906002020160000154840361243857600a81815481106122db576122da61483c565b5b906000526020600020906002020160010180546122f79061479f565b80601f01602080910402602001604051908101604052809291908181526020018280546123239061479f565b80156123705780601f1061234557610100808354040283529160200191612370565b820191906000526020600020905b81548152906001019060200180831161235357829003601f168201915b50505050509150601160003373ffffffffffffffffffffffffffffffffffffffff1673ffffffffffffffffffffffffffffffffffffffff1681526020019081526020016000206000848152602001908152602001600020600a82815481106123db576123da61483c565b5b906000526020600020906002020190806001815401808255809150506001900390600052602060002090600202016000909190919091506000820154816000015560018201816001019081612430919061515d565b505050612449565b8061244290614906565b905061228e565b507fd7946cbb0489e47c8c2faf56dc8b80b813314d02e6b57537c75f27e3706b76c48161247585613736565b604051612483929190615245565b60405180910390a1505050565b6060600a805480602002602001604051908101604052809291908181526020016000905b828210156125825783829060005260206000209060020201604051806040016040529081600082015481526020016001820180546124f19061479f565b80601f016020809104026020016040519081016040528092919081815260200182805461251d9061479f565b801561256a5780601f1061253f5761010080835404028352916020019161256a565b820191906000526020600020905b81548152906001019060200180831161254d57829003601f168201915b505050505081525050815260200190600101906124b4565b50505050905090565b60606004805461259a9061479f565b80601f01602080910402602001604051908101604052809291908181526020018280546125c69061479f565b80156126135780601f106125e857610100808354040283529160200191612613565b820191906000526020600020905b8154815290600101906020018083116125f657829003601f168201915b5050505050905090565b60008060008061262c856127a5565b92509250925060018682858560405160008152602001604052604051612655949392919061527c565b6020604051602081039080840390855afa158015612677573d6000803e3d6000fd5b50505060206040510351935050505092915050565b600080600090505b6009805490508110156126ea57600981815481106126b5576126b461483c565b5b90600052602060002090600202016000015483036126d75760009150506126f0565b80806126e290614906565b915050612694565b50600190505b919050565b60008484848460405160200161270e949392919061532a565b604051602081830303815290604052805190602001209050949350505050565b6000806127396131fc565b905060006127478286612caa565b90508381101561278c576040517f08c379a0000000000000000000000000000000000000000000000000000000008152600401612783906153e6565b60405180910390fd5b6127998286868403613204565b60019250505092915050565b600080600060418451146127ee576040517f08c379a00000000000000000000000000000000000000000000000000000000081526004016127e590615452565b60405180910390fd5b6020840151925060408401519150606084015160001a90509193909250565b6000806128186131fc565b9050612825818585613459565b600191505092915050565b60008061283f878787876126f5565b9050600061284c826131cc565b90508873ffffffffffffffffffffffffffffffffffffffff1661286f828661261d565b73ffffffffffffffffffffffffffffffffffffffff1614925050509695505050505050565b6000805b60068054905081101561293057600681815481106128b9576128b861483c565b5b9060005260206000200160009054906101000a900473ffffffffffffffffffffffffffffffffffffffff1673ffffffffffffffffffffffffffffffffffffffff163373ffffffffffffffffffffffffffffffffffffffff160361291f5760019150612930565b8061292990614906565b9050612898565b506001151581151514612978576040517f08c379a000000000000000000000000000000000000000000000000000000000815260040161296f90614f1c565b60405180910390fd5b6129818261268c565b6129c0576040517f08c379a00000000000000000000000000000000000000000000000000000000081526004016129b7906154be565b60405180910390fd5b600960405180604001604052808481526020016000151581525090806001815401808255809150506001900390600052602060002090600202016000909190919091506000820151816000015560208201518160010160006101000a81548160ff02191690831515021790555050505050565b6000806040518060400160405280601c81526020017f19457468657265756d205369676e6564204d6573736167653a0a333200000000815250905060008187604051602001612a83929190615546565b604051602081830303815290604052805190602001209050600060018288888860405160008152602001604052604051612ac0949392919061527c565b6020604051602081039080840390855afa158015612ae2573d6000803e3d6000fd5b505050602060405103519050600560009054906101000a900473ffffffffffffffffffffffffffffffffffffffff1673ffffffffffffffffffffffffffffffffffffffff168173ffffffffffffffffffffffffffffffffffffffff1603612b4f5760019350505050612b57565b600093505050505b949350505050565b6060601160003373ffffffffffffffffffffffffffffffffffffffff1673ffffffffffffffffffffffffffffffffffffffff1681526020019081526020016000206000838152602001908152602001600020805480602002602001604051908101604052809291908181526020016000905b82821015612c9f578382906000526020600020906002020160405180604001604052908160008201548152602001600182018054612c0e9061479f565b80601f0160208091040260200160405190810160405280929190818152602001828054612c3a9061479f565b8015612c875780601f10612c5c57610100808354040283529160200191612c87565b820191906000526020600020905b815481529060010190602001808311612c6a57829003601f168201915b50505050508152505081526020019060010190612bd1565b505050509050919050565b6000600160008473ffffffffffffffffffffffffffffffffffffffff1673ffffffffffffffffffffffffffffffffffffffff16815260200190815260200160002060008373ffffffffffffffffffffffffffffffffffffffff1673ffffffffffffffffffffffffffffffffffffffff16815260200190815260200160002054905092915050565b600060405180608001604052808481526020018381526020016001151581526020013373ffffffffffffffffffffffffffffffffffffffff16815250905082600c60003373ffffffffffffffffffffffffffffffffffffffff1673ffffffffffffffffffffffffffffffffffffffff1681526020019081526020016000206000019081612dbe9190614d19565b5081600c60003373ffffffffffffffffffffffffffffffffffffffff1673ffffffffffffffffffffffffffffffffffffffff1681526020019081526020016000206001018190555033600c60003373ffffffffffffffffffffffffffffffffffffffff1673ffffffffffffffffffffffffffffffffffffffff16815260200190815260200160002060020160016101000a81548173ffffffffffffffffffffffffffffffffffffffff021916908373ffffffffffffffffffffffffffffffffffffffff160217905550600c60003373ffffffffffffffffffffffffffffffffffffffff1673ffffffffffffffffffffffffffffffffffffffff16815260200190815260200160002060020160009054906101000a900460ff16612fec57600b8190806001815401808255809150506001900390600052602060002090600302016000909190919091506000820151816000019081612f1c9190614d19565b506020820151816001015560408201518160020160006101000a81548160ff02191690831515021790555060608201518160020160016101000a81548173ffffffffffffffffffffffffffffffffffffffff021916908373ffffffffffffffffffffffffffffffffffffffff16021790555050506001600c60003373ffffffffffffffffffffffffffffffffffffffff1673ffffffffffffffffffffffffffffffffffffffff16815260200190815260200160002060020160006101000a81548160ff0219169083151502179055505b7ff9aabaa28b0c7b9b6a80283c8b8fd6983df8e2c5703e65ee433dbbd737306268838360405161301d92919061556e565b60405180910390a1505050565b6014602052816000526040600020818154811061304657600080fd5b90600052602060002001600091509150505481565b6010602052826000526040600020602052816000526040600020818154811061308357600080fd5b906000526020600020906004020160009250925050508060000180546130a89061479f565b80601f01602080910402602001604051908101604052809291908181526020018280546130d49061479f565b80156131215780601f106130f657610100808354040283529160200191613121565b820191906000526020600020905b81548152906001019060200180831161310457829003601f168201915b50505050509080600101549080600201805461313c9061479f565b80601f01602080910402602001604051908101604052809291908181526020018280546131689061479f565b80156131b55780601f1061318a576101008083540402835291602001916131b5565b820191906000526020600020905b81548152906001019060200180831161319857829003601f168201915b5050505050908060030154905084565b6000919050565b6000816040516020016131df91906155ea565b604051602081830303815290604052805190602001209050919050565b600033905090565b600073ffffffffffffffffffffffffffffffffffffffff168373ffffffffffffffffffffffffffffffffffffffff1603613273576040517f08c379a000000000000000000000000000000000000000000000000000000000815260040161326a90615682565b60405180910390fd5b600073ffffffffffffffffffffffffffffffffffffffff168273ffffffffffffffffffffffffffffffffffffffff16036132e2576040517f08c379a00000000000000000000000000000000000000000000000000000000081526004016132d990615714565b60405180910390fd5b80600160008573ffffffffffffffffffffffffffffffffffffffff1673ffffffffffffffffffffffffffffffffffffffff16815260200190815260200160002060008473ffffffffffffffffffffffffffffffffffffffff1673ffffffffffffffffffffffffffffffffffffffff168152602001908152602001600020819055508173ffffffffffffffffffffffffffffffffffffffff168373ffffffffffffffffffffffffffffffffffffffff167f8c5be1e5ebec7d5bd14f71427d1e84f3dd0314c0f7b2291e5b200ac8c7c3b925836040516133c09190613cb3565b60405180910390a3505050565b60006133d98484612caa565b90507fffffffffffffffffffffffffffffffffffffffffffffffffffffffffffffffff81146134535781811015613445576040517f08c379a000000000000000000000000000000000000000000000000000000000815260040161343c90615780565b60405180910390fd5b6134528484848403613204565b5b50505050565b600073ffffffffffffffffffffffffffffffffffffffff168373ffffffffffffffffffffffffffffffffffffffff16036134c8576040517f08c379a00000000000000000000000000000000000000000000000000000000081526004016134bf90615812565b60405180910390fd5b600073ffffffffffffffffffffffffffffffffffffffff168273ffffffffffffffffffffffffffffffffffffffff1603613537576040517f08c379a000000000000000000000000000000000000000000000000000000000815260040161352e906158a4565b60405180910390fd5b6135428383836138fb565b60008060008573ffffffffffffffffffffffffffffffffffffffff1673ffffffffffffffffffffffffffffffffffffffff168152602001908152602001600020549050818110156135c8576040517f08c379a00000000000000000000000000000000000000000000000000000000081526004016135bf90615936565b60405180910390fd5b8181036000808673ffffffffffffffffffffffffffffffffffffffff1673ffffffffffffffffffffffffffffffffffffffff16815260200190815260200160002081905550816000808573ffffffffffffffffffffffffffffffffffffffff1673ffffffffffffffffffffffffffffffffffffffff168152602001908152602001600020600082825401925050819055508273ffffffffffffffffffffffffffffffffffffffff168473ffffffffffffffffffffffffffffffffffffffff167fddf252ad1be2c89b69c2b068fc378daa952ba7f163c4a11628f55a4df523b3ef846040516136b69190613cb3565b60405180910390a36136c9848484613900565b50505050565b600080600090505b600a8054905081101561372b57600a81815481106136f8576136f761483c565b5b906000526020600020906002020160000154830361371a576000915050613731565b8061372490614906565b90506136d7565b50600190505b919050565b606060005b600f60003373ffffffffffffffffffffffffffffffffffffffff1673ffffffffffffffffffffffffffffffffffffffff168152602001908152602001600020805490508110156138f457600f60003373ffffffffffffffffffffffffffffffffffffffff1673ffffffffffffffffffffffffffffffffffffffff16815260200190815260200160002081815481106137d6576137d561483c565b5b90600052602060002090600202016000015483036138e157600f60003373ffffffffffffffffffffffffffffffffffffffff1673ffffffffffffffffffffffffffffffffffffffff168152602001908152602001600020818154811061383f5761383e61483c565b5b9060005260206000209060020201600101805461385b9061479f565b80601f01602080910402602001604051908101604052809291908181526020018280546138879061479f565b80156138d45780601f106138a9576101008083540402835291602001916138d4565b820191906000526020600020905b8154815290600101906020018083116138b757829003601f168201915b50505050509150506138f6565b80806138ec90614906565b91505061373b565b505b919050565b505050565b505050565b6040518060800160405280606081526020016000815260200160608152602001600081525090565b600081519050919050565b600082825260208201905092915050565b60005b8381101561396757808201518184015260208101905061394c565b60008484015250505050565b6000601f19601f8301169050919050565b600061398f8261392d565b6139998185613938565b93506139a9818560208601613949565b6139b281613973565b840191505092915050565b600060208201905081810360008301526139d78184613984565b905092915050565b6000604051905090565b600080fd5b600080fd5b600073ffffffffffffffffffffffffffffffffffffffff82169050919050565b6000613a1e826139f3565b9050919050565b613a2e81613a13565b8114613a3957600080fd5b50565b600081359050613a4b81613a25565b92915050565b6000819050919050565b613a6481613a51565b8114613a6f57600080fd5b50565b600081359050613a8181613a5b565b92915050565b60008060408385031215613a9e57613a9d6139e9565b5b6000613aac85828601613a3c565b9250506020613abd85828601613a72565b9150509250929050565b60008115159050919050565b613adc81613ac7565b82525050565b6000602082019050613af76000830184613ad3565b92915050565b600081519050919050565b600082825260208201905092915050565b6000819050602082019050919050565b600082825260208201905092915050565b6000613b458261392d565b613b4f8185613b29565b9350613b5f818560208601613949565b613b6881613973565b840191505092915050565b613b7c81613a51565b82525050565b60006080830160008301518482036000860152613b9f8282613b3a565b9150506020830151613bb46020860182613b73565b5060408301518482036040860152613bcc8282613b3a565b9150506060830151613be16060860182613b73565b508091505092915050565b6000613bf88383613b82565b905092915050565b6000602082019050919050565b6000613c1882613afd565b613c228185613b08565b935083602082028501613c3485613b19565b8060005b85811015613c705784840389528151613c518582613bec565b9450613c5c83613c00565b925060208a01995050600181019050613c38565b50829750879550505050505092915050565b60006020820190508181036000830152613c9c8184613c0d565b905092915050565b613cad81613a51565b82525050565b6000602082019050613cc86000830184613ca4565b92915050565b600080fd5b600080fd5b7f4e487b7100000000000000000000000000000000000000000000000000000000600052604160045260246000fd5b613d1082613973565b810181811067ffffffffffffffff82111715613d2f57613d2e613cd8565b5b80604052505050565b6000613d426139df565b9050613d4e8282613d07565b919050565b600067ffffffffffffffff821115613d6e57613d6d613cd8565b5b613d7782613973565b9050602081019050919050565b82818337600083830152505050565b6000613da6613da184613d53565b613d38565b905082815260208101848484011115613dc257613dc1613cd3565b5b613dcd848285613d84565b509392505050565b600082601f830112613dea57613de9613cce565b5b8135613dfa848260208601613d93565b91505092915050565b60008060008060808587031215613e1d57613e1c6139e9565b5b6000613e2b87828801613a72565b945050602085013567ffffffffffffffff811115613e4c57613e4b6139ee565b5b613e5887828801613dd5565b9350506040613e6987828801613a72565b9250506060613e7a87828801613a72565b91505092959194509250565b600080600060608486031215613e9f57613e9e6139e9565b5b6000613ead86828701613a3c565b9350506020613ebe86828701613a3c565b9250506040613ecf86828701613a72565b9150509250925092565b600060208284031215613eef57613eee6139e9565b5b6000613efd84828501613a72565b91505092915050565b600060ff82169050919050565b613f1c81613f06565b82525050565b6000602082019050613f376000830184613f13565b92915050565b60006080820190508181036000830152613f578187613984565b9050613f666020830186613ca4565b8181036040830152613f788185613984565b9050613f876060830184613ca4565b95945050505050565b6000604082019050613fa56000830185613ca4565b613fb26020830184613ad3565b9392505050565b6000604082019050613fce6000830185613ca4565b8181036020830152613fe08184613984565b90509392505050565b600060208284031215613fff57613ffe6139e9565b5b600061400d84828501613a3c565b91505092915050565b61401f81613a13565b82525050565b6000608082019050818103600083015261403f8187613984565b905061404e6020830186613ca4565b61405b6040830185613ad3565b6140686060830184614016565b95945050505050565b60008060408385031215614088576140876139e9565b5b600061409685828601613a72565b925050602083013567ffffffffffffffff8111156140b7576140b66139ee565b5b6140c385828601613dd5565b9150509250929050565b6000806000606084860312156140e6576140e56139e9565b5b60006140f486828701613a72565b935050602061410586828701613a72565b925050604061411686828701613a72565b9150509250925092565b600080600060608486031215614139576141386139e9565b5b600061414786828701613a3c565b935050602061415886828701613a72565b925050604061416986828701613a72565b9150509250925092565b6000806040838503121561418a576141896139e9565b5b600061419885828601613a72565b92505060206141a985828601613a72565b9150509250929050565b600081519050919050565b600082825260208201905092915050565b6000819050602082019050919050565b60006040830160008301516141f76000860182613b73565b506020830151848203602086015261420f8282613b3a565b9150508091505092915050565b600061422883836141df565b905092915050565b6000602082019050919050565b6000614248826141b3565b61425281856141be565b935083602082028501614264856141cf565b8060005b858110156142a05784840389528151614281858261421c565b945061428c83614230565b925060208a01995050600181019050614268565b50829750879550505050505092915050565b600060208201905081810360008301526142cc818461423d565b905092915050565b6000819050919050565b6142e7816142d4565b81146142f257600080fd5b50565b600081359050614304816142de565b92915050565b600067ffffffffffffffff82111561432557614324613cd8565b5b61432e82613973565b9050602081019050919050565b600061434e6143498461430a565b613d38565b90508281526020810184848401111561436a57614369613cd3565b5b614375848285613d84565b509392505050565b600082601f83011261439257614391613cce565b5b81356143a284826020860161433b565b91505092915050565b600080604083850312156143c2576143c16139e9565b5b60006143d0858286016142f5565b925050602083013567ffffffffffffffff8111156143f1576143f06139ee565b5b6143fd8582860161437d565b9150509250929050565b600060208201905061441c6000830184614016565b92915050565b6000806000806080858703121561443c5761443b6139e9565b5b600061444a87828801613a3c565b945050602061445b87828801613a72565b935050604085013567ffffffffffffffff81111561447c5761447b6139ee565b5b61448887828801613dd5565b925050606061449987828801613a72565b91505092959194509250565b6144ae816142d4565b82525050565b60006020820190506144c960008301846144a5565b92915050565b6000602082840312156144e5576144e46139e9565b5b600082013567ffffffffffffffff811115614503576145026139ee565b5b61450f8482850161437d565b91505092915050565b600060608201905061452d60008301866144a5565b61453a60208301856144a5565b6145476040830184613f13565b949350505050565b60008060008060008060c0878903121561456c5761456b6139e9565b5b600061457a89828a01613a3c565b965050602061458b89828a01613a3c565b955050604061459c89828a01613a72565b945050606087013567ffffffffffffffff8111156145bd576145bc6139ee565b5b6145c989828a01613dd5565b93505060806145da89828a01613a72565b92505060a087013567ffffffffffffffff8111156145fb576145fa6139ee565b5b61460789828a0161437d565b9150509295509295509295565b61461d81613f06565b811461462857600080fd5b50565b60008135905061463a81614614565b92915050565b6000806000806080858703121561465a576146596139e9565b5b6000614668878288016142f5565b94505060206146798782880161462b565b935050604061468a878288016142f5565b925050606061469b878288016142f5565b91505092959194509250565b600080604083850312156146be576146bd6139e9565b5b60006146cc85828601613a3c565b92505060206146dd85828601613a3c565b9150509250929050565b600080604083850312156146fe576146fd6139e9565b5b600083013567ffffffffffffffff81111561471c5761471b6139ee565b5b61472885828601613dd5565b925050602061473985828601613a72565b9150509250929050565b600060208284031215614759576147586139e9565b5b6000614767848285016142f5565b91505092915050565b7f4e487b7100000000000000000000000000000000000000000000000000000000600052602260045260246000fd5b600060028204905060018216806147b757607f821691505b6020821081036147ca576147c9614770565b5b50919050565b7f496e76616c69642072617465206e756d62657200000000000000000000000000600082015250565b6000614806601383613938565b9150614811826147d0565b602082019050919050565b60006020820190508181036000830152614835816147f9565b9050919050565b7f4e487b7100000000000000000000000000000000000000000000000000000000600052603260045260246000fd5b7f5469636b65742068617320757365640000000000000000000000000000000000600082015250565b60006148a1600f83613938565b91506148ac8261486b565b602082019050919050565b600060208201905081810360008301526148d081614894565b9050919050565b7f4e487b7100000000000000000000000000000000000000000000000000000000600052601160045260246000fd5b600061491182613a51565b91507fffffffffffffffffffffffffffffffffffffffffffffffffffffffffffffffff8203614943576149426148d7565b5b600182019050919050565b7f496e76616c6964205469636b6574202120506c6561736520436865636b2d696e60008201527f20616761696e0000000000000000000000000000000000000000000000000000602082015250565b60006149aa602683613938565b91506149b58261494e565b604082019050919050565b600060208201905081810360008301526149d98161499d565b9050919050565b600081905092915050565b60008190508160005260206000209050919050565b60008154614a0d8161479f565b614a1781866149e0565b94506001821660008114614a325760018114614a4757614a7a565b60ff1983168652811515820286019350614a7a565b614a50856149eb565b60005b83811015614a7257815481890152600182019150602081019050614a53565b838801955050505b50505092915050565b6000614a8f8284614a00565b915081905092915050565b6000614aa58261392d565b614aaf81856149e0565b9350614abf818560208601613949565b80840191505092915050565b6000614ad78284614a9a565b915081905092915050565b6000614aed82613a51565b9150614af883613a51565b9250828201905080821115614b1057614b0f6148d7565b5b92915050565b7f436865636b2d696e206f6e6c7920312074696d6520706572206461792e000000600082015250565b6000614b4c601d83613938565b9150614b5782614b16565b602082019050919050565b60006020820190508181036000830152614b7b81614b3f565b9050919050565b60006020601f8301049050919050565b600082821b905092915050565b600060088302614bcf7fffffffffffffffffffffffffffffffffffffffffffffffffffffffffffffffff82614b92565b614bd98683614b92565b95508019841693508086168417925050509392505050565b6000819050919050565b6000614c16614c11614c0c84613a51565b614bf1565b613a51565b9050919050565b6000819050919050565b614c3083614bfb565b614c44614c3c82614c1d565b848454614b9f565b825550505050565b600090565b614c59614c4c565b614c64818484614c27565b505050565b5b81811015614c8857614c7d600082614c51565b600181019050614c6a565b5050565b601f821115614ccd57614c9e816149eb565b614ca784614b82565b81016020851015614cb6578190505b614cca614cc285614b82565b830182614c69565b50505b505050565b600082821c905092915050565b6000614cf060001984600802614cd2565b1980831691505092915050565b6000614d098383614cdf565b9150826002028217905092915050565b614d228261392d565b67ffffffffffffffff811115614d3b57614d3a613cd8565b5b614d45825461479f565b614d50828285614c8c565b600060209050601f831160018114614d835760008415614d71578287015190505b614d7b8582614cfd565b865550614de3565b601f198416614d91866149eb565b60005b82811015614db957848901518255600182019150602085019450602081019050614d94565b86831015614dd65784890151614dd2601f891682614cdf565b8355505b6001600288020188555050505b505050505050565b7f496e76616c6964205152636f6465000000000000000000000000000000000000600082015250565b6000614e21600e83613938565b9150614e2c82614deb565b602082019050919050565b60006020820190508181036000830152614e5081614e14565b9050919050565b60006080820190508181036000830152614e718187613984565b90508181036020830152614e858186613984565b9050614e946040830185613ca4565b614ea16060830184613ca4565b95945050505050565b7f4f6e6c792061646d696e2063616e2063616c6c20746869732066756e6374696f60008201527f6e00000000000000000000000000000000000000000000000000000000000000602082015250565b6000614f06602183613938565b9150614f1182614eaa565b604082019050919050565b60006020820190508181036000830152614f3581614ef9565b9050919050565b7f496e76616c696420726f6c652c206f6e6c792061646d696e206f72207365727660008201527f696365207375697461626c652e00000000000000000000000000000000000000602082015250565b6000614f98602d83613938565b9150614fa382614f3c565b604082019050919050565b60006020820190508181036000830152614fc781614f8b565b9050919050565b7f496e64657820686173206265656e20616c726561647920657869737465640000600082015250565b6000615004601e83613938565b915061500f82614fce565b602082019050919050565b6000602082019050818103600083015261503381614ff7565b9050919050565b7f546869732044657374696e6174696f6e20776173206e6f7420636865636b696e600082015250565b6000615070602083613938565b915061507b8261503a565b602082019050919050565b6000602082019050818103600083015261509f81615063565b9050919050565b600060808301600083015184820360008601526150c38282613b3a565b91505060208301516150d86020860182613b73565b50604083015184820360408601526150f08282613b3a565b91505060608301516151056060860182613b73565b508091505092915050565b6000604082019050818103600083015261512a8185613984565b9050818103602083015261513e81846150a6565b90509392505050565b6000815490506151568161479f565b9050919050565b81810361516b575050615243565b61517482615147565b67ffffffffffffffff81111561518d5761518c613cd8565b5b615197825461479f565b6151a2828285614c8c565b6000601f8311600181146151d157600084156151bf578287015490505b6151c98582614cfd565b86555061523c565b601f1984166151df876149eb565b96506151ea866149eb565b60005b82811015615212578489015482556001820191506001850194506020810190506151ed565b8683101561522f578489015461522b601f891682614cdf565b8355505b6001600288020188555050505b5050505050505b565b6000604082019050818103600083015261525f8185613984565b905081810360208301526152738184613984565b90509392505050565b600060808201905061529160008301876144a5565b61529e6020830186613f13565b6152ab60408301856144a5565b6152b860608301846144a5565b95945050505050565b60008160601b9050919050565b60006152d9826152c1565b9050919050565b60006152eb826152ce565b9050919050565b6153036152fe82613a13565b6152e0565b82525050565b6000819050919050565b61532461531f82613a51565b615309565b82525050565b600061533682876152f2565b6014820191506153468286615313565b6020820191506153568285614a9a565b91506153628284615313565b60208201915081905095945050505050565b7f45524332303a2064656372656173656420616c6c6f77616e63652062656c6f7760008201527f207a65726f000000000000000000000000000000000000000000000000000000602082015250565b60006153d0602583613938565b91506153db82615374565b604082019050919050565b600060208201905081810360008301526153ff816153c3565b9050919050565b7f696e76616c6964207369676e6174757265206c656e6774680000000000000000600082015250565b600061543c601883613938565b915061544782615406565b602082019050919050565b6000602082019050818103600083015261546b8161542f565b9050919050565b7f5468697320494420616c72656164792065786973746564000000000000000000600082015250565b60006154a8601783613938565b91506154b382615472565b602082019050919050565b600060208201905081810360008301526154d78161549b565b9050919050565b600081519050919050565b600081905092915050565b60006154ff826154de565b61550981856154e9565b9350615519818560208601613949565b80840191505092915050565b6000819050919050565b61554061553b826142d4565b615525565b82525050565b600061555282856154f4565b915061555e828461552f565b6020820191508190509392505050565b600060408201905081810360008301526155888185613984565b90506155976020830184613ca4565b9392505050565b7f19457468657265756d205369676e6564204d6573736167653a0a333200000000600082015250565b60006155d4601c836149e0565b91506155df8261559e565b601c82019050919050565b60006155f5826155c7565b9150615601828461552f565b60208201915081905092915050565b7f45524332303a20617070726f76652066726f6d20746865207a65726f2061646460008201527f7265737300000000000000000000000000000000000000000000000000000000602082015250565b600061566c602483613938565b915061567782615610565b604082019050919050565b6000602082019050818103600083015261569b8161565f565b9050919050565b7f45524332303a20617070726f766520746f20746865207a65726f20616464726560008201527f7373000000000000000000000000000000000000000000000000000000000000602082015250565b60006156fe602283613938565b9150615709826156a2565b604082019050919050565b6000602082019050818103600083015261572d816156f1565b9050919050565b7f45524332303a20696e73756666696369656e7420616c6c6f77616e6365000000600082015250565b600061576a601d83613938565b915061577582615734565b602082019050919050565b600060208201905081810360008301526157998161575d565b9050919050565b7f45524332303a207472616e736665722066726f6d20746865207a65726f20616460008201527f6472657373000000000000000000000000000000000000000000000000000000602082015250565b60006157fc602583613938565b9150615807826157a0565b604082019050919050565b6000602082019050818103600083015261582b816157ef565b9050919050565b7f45524332303a207472616e7366657220746f20746865207a65726f206164647260008201527f6573730000000000000000000000000000000000000000000000000000000000602082015250565b600061588e602383613938565b915061589982615832565b604082019050919050565b600060208201905081810360008301526158bd81615881565b9050919050565b7f45524332303a207472616e7366657220616d6f756e742065786365656473206260008201527f616c616e63650000000000000000000000000000000000000000000000000000602082015250565b6000615920602683613938565b915061592b826158c4565b604082019050919050565b6000602082019050818103600083015261594f81615913565b905091905056fea2646970667358221220d6a1a526bc2a35327ce52aceb2e603b593bde321b0b4f4423823cd726e024f6f64736f6c63430008130033",
  "linkReferences": {},
  "deployedLinkReferences": {}
}